:020000040800F2
:10000000600600200D020008490200084B020008AB
:100010004D0200084F0200085102000800000000D5
:100020000000000000000000000000005302000873
:10003000550200080000000057020008590200089D
:100040005B0200085B0200085B0200085B0200081C
:100050005B0200085B0200085B0200085B0200080C
:100060005B0200085B0200085B0200085B020008FC
:100070005B0200085B0200085B0200085B020008EC
:100080005B0200085B0200085B0200085B020008DC
:100090005B0200085B0200085B0200085B020008CC
:1000A0005B0200085B0200085B0200085B020008BC
:1000B0005B0200085B0200085B0200085B020008AC
:1000C0005B0200085B0200085B0200085B0200089C
:1000D0005B0200085B0200085B0200085B0200088C
:1000E0005B0200085B0200085B0200085B0200087C
:1000F0005B0200085B0200085B0200085B0200086C
:100100005B0200085B0200085B0200085B0200085B
:100110005B0200085B0200085B0200085B0200084B
:100120005B0200085B0200085B0200085B0200083B
:100130005B0200085B0200085B0200085B0200082B
:100140005B0200085B0200085B0200085B0200081B
:100150005B0200085B0200085B0200085B0200080B
:100160005B0200085B0200085B0200085B020008FB
:100170005B0200085B0200085B0200080000000050
:100180005B0200085B02000800F002F800F02EF8A5
:100190000AA090E8000C82448344AAF10107DA45E2
:1001A00001D100F023F8AFF2090EBAE80F0013F006
:1001B000010F18BFFB1A43F001031847C8020000E3
:1001C000D80200000023002400250026103A28BF92
:1001D00078C1FBD8520728BF30C148BF0B607047B9
:1001E0001FB500F049F91FBD10B510BD00F053F860
:1001F0001146FFF7F5FF00F089F800F071F803B43D
:10020000FFF7F2FF03BC00F079F800001648174929
:10021000174B99423CBF50F8042B41F8042BF8D3FC
:1002200014494FF000028B4238BF43F8042BFAD335
:10023000DFF84400016841F470010160BFF34F8FA3
:10024000BFF36F8F0D480047FEE7FEE7FEE7FEE7CE
:10025000FEE7FEE7FEE7FEE7FEE7FEE7084809499E
:10026000094A0A4B7047000094040008000000206F
:10027000000000206006002088ED00E089010008F1
:100280006000002060060020600200206002002064
:10029000704770477047754600F02CF8AE46050071
:1002A0006946534620F00700854618B020B5FFF791
:1002B000D5FFBDE820404FF000064FF000074FF09B
:1002C00000084FF0000B21F00701AC46ACE8C00974
:1002D000ACE8C009ACE8C009ACE8C0098D4670477D
:1002E00010B50446AFF300802046BDE81040FFF78C
:1002F00086BF000000487047000000200149182018
:10030000ABBEFEE72600020070470000002000217F
:1003100000220023544C246844F48074524D2C6015
:1003200000BF514C246804F48064002CF9D04E4C7A
:10033000A46824F003044C4DAC602C46A46844F03F
:100340000104AC6000BF484CA46804F00C04002C0D
:10035000F9D0454CE46C44F00104434DEC642C4668
:10036000E46C44F00204EC642C46E46C44F01004A9
:10037000EC643E4C246824F030043C4D2C602C4648
:10038000246844F010042C602C1D246824F004041C
:100390002D1D2C60354C0C34246824F03004334D72
:1003A0000C352C60324C246824F44034304D2C60E1
:1003B0002C46246844F480342C602C46646824F471
:1003C00080746C602C46E46824F44034EC604FF098
:1003D0009044246840F6FF45AC434FF090452C60B4
:1003E0002C46E46840F6FF45AC434FF09045EC6086
:1003F0002C46E4681F4D2C434FF09045EC6032E0F2
:100400004FF09044246904F001025ABB012B2AD119
:10041000164C14342068800800F0010030B92468BC
:1004200044F00404114D14352C6007E00F4C1434D3
:10043000246824F004040D4D14352C600C4C6169C3
:10044000090A01F0010129B9646944F48074084D76
:100450006C6105E0064C646924F48074044D6C61A1
:10046000002300E00123CBE7001002400004004815
:100470000010004855F7FFFF4FF04070E1EE100A02
:10048000704700009404000800000020600600008F
:04049000C40100089B
:040000050800018965
:00000001FF
