:020000040800F2
:100000000006002089010008C5010008C70100089A
:10001000C9010008CB010008CD0100080000000064
:10002000000000000000000000000000CF010008F8
:10003000D101000800000000D3010008D50100082C
:10004000D7010008D7010008D7010008D701000830
:10005000D7010008D7010008D7010008D701000820
:10006000D7010008D7010008D7010008D701000810
:10007000D7010008D7010008D7010008D701000800
:10008000D7010008D7010008D7010008D7010008F0
:10009000D7010008D7010008D7010008D7010008E0
:1000A000D7010008D7010008D7010008D7010008D0
:1000B000D7010008D7010008D7010008D7010008C0
:1000C000D7010008D7010008D7010008D7010008B0
:1000D000D7010008D7010008D7010008D7010008A0
:1000E000D7010008D7010008D7010008D701000890
:1000F000D7010008D7010008D7010008D701000880
:10010000D7010008D7010008D7010008D70100086F
:10011000D7010008D7010008D7010008D70100085F
:10012000D7010008D7010008D7010008D70100084F
:10013000D7010008D7010008D7010008D70100083F
:10014000D7010008D7010008D7010008D70100082F
:10015000D7010008D7010008D7010008D70100081F
:10016000D7010008D7010008D7010008D70100080F
:10017000D7010008D7010008D701000800000000DF
:10018000D7010008D701000816481749174B9942B4
:100190003CBF50F8042B41F8042BF8D314494FF01E
:1001A00000028B4238BF43F8042BFAD3DFF8440037
:1001B000016841F470010160BFF34F8FBFF36F8F8F
:1001C0000D480047FEE7FEE7FEE7FEE7FEE7FEE735
:1001D000FEE7FEE7FEE7FEE708480949094A0A4B41
:1001E00070470000BC030008000000200000002051
:1001F0000006002088ED00E0150200080000002045
:100200000006002000020020000200207047704716
:10021000704700006748C16C41F00201C164654845
:10022000C16C41F00101C1646348016821F03001F3
:1002300041F0100101606048016821F0C00141F007
:10024000400101605C48016821F4405141F4805153
:1002500001605948016821F4404141F48041016046
:100260004FF09040016821F003010160524841685D
:1002700021F0040141605048416821F008014160CB
:100280004D48416821F0400141604B48416821F0F0
:10029000800141604848C16821F03001C160464892
:1002A000C16821F0C001C1604348C16821F44051D8
:1002B000C1604148C16821F44041C1604FF09040A5
:1002C000C16821F00301C1604FF000020A2AFBDA85
:1002D0004FF000034FF09040016911F00104012C30
:1002E000F2D0B3F57F4F03F10103F3DD002A01BF24
:1002F0003148416921F0CC014161012A01BF2E48FA
:10030000416921F0CC0141F0040108BF4161022A9A
:1003100001BF2948416921F0CC0141F0080108BF23
:100320004161032A01BF2448416921F0CC0141F019
:100330000C0108BF4161042A01BF1F48416921F037
:10034000CC0141F0400108BF4161052A01BF1A48B4
:10035000416921F0CC0141F0440108BF4161062A06
:1003600001BF1548416921F0CC0141F0480108BFA7
:100370004161072A01BF1048416921F0CC0141F0D9
:100380004C0108BF4161082A01BF0B48416921F0B7
:10039000CC0141F0800108BF4161092A01BF064834
:1003A000416921F0CC0141F0840108BF416102F1B3
:0C03B00001028BE700100240000400482E
:0400000508000215D8
:00000001FF
